{
  "_format": "hh-sol-artifact-1",
  "contractName": "medEx",
  "sourceName": "contracts/MedEx.sol",
  "abi": [
    {
      "inputs": [
        {
          "internalType": "string",
          "name": "_patientname",
          "type": "string"
        },
        {
          "internalType": "address",
          "name": "_pid",
          "type": "address"
        },
        {
          "internalType": "uint256",
          "name": "_age",
          "type": "uint256"
        },
        {
          "internalType": "string",
          "name": "_gender",
          "type": "string"
        },
        {
          "internalType": "uint256",
          "name": "_contact",
          "type": "uint256"
        }
      ],
      "name": "PatientReg",
      "outputs": [],
      "stateMutability": "nonpayable",
      "type": "function"
    },
    {
      "inputs": [
        {
          "internalType": "string",
          "name": "_labname",
          "type": "string"
        },
        {
          "internalType": "string",
          "name": "_reco_hospitalname",
          "type": "string"
        },
        {
          "internalType": "string",
          "name": "_reco_docname",
          "type": "string"
        }
      ],
      "name": "RegDiagnostic",
      "outputs": [],
      "stateMutability": "nonpayable",
      "type": "function"
    },
    {
      "inputs": [
        {
          "internalType": "address",
          "name": "Patient_id",
          "type": "address"
        },
        {
          "internalType": "string",
          "name": "Patient_Name",
          "type": "string"
        },
        {
          "internalType": "string",
          "name": "email_id",
          "type": "string"
        },
        {
          "internalType": "string",
          "name": "Blood_Group",
          "type": "string"
        },
        {
          "internalType": "string",
          "name": "DateOfBirth",
          "type": "string"
        },
        {
          "internalType": "string",
          "name": "gender",
          "type": "string"
        },
        {
          "internalType": "string",
          "name": "Hos_name",
          "type": "string"
        },
        {
          "internalType": "string",
          "name": "Doc_name",
          "type": "string"
        },
        {
          "internalType": "uint256",
          "name": "age",
          "type": "uint256"
        },
        {
          "internalType": "bool",
          "name": "diabetes",
          "type": "bool"
        }
      ],
      "name": "addReport",
      "outputs": [],
      "stateMutability": "payable",
      "type": "function"
    },
    {
      "inputs": [
        {
          "internalType": "address",
          "name": "",
          "type": "address"
        }
      ],
      "name": "dcentres",
      "outputs": [
        {
          "internalType": "string",
          "name": "Lab_name",
          "type": "string"
        },
        {
          "internalType": "address",
          "name": "lab_id",
          "type": "address"
        },
        {
          "internalType": "string",
          "name": "reco_hospitalname",
          "type": "string"
        },
        {
          "internalType": "string",
          "name": "reco_doc_name",
          "type": "string"
        }
      ],
      "stateMutability": "view",
      "type": "function"
    },
    {
      "inputs": [
        {
          "internalType": "string",
          "name": "Doctor_name",
          "type": "string"
        },
        {
          "internalType": "address",
          "name": "doctor_id",
          "type": "address"
        },
        {
          "internalType": "string",
          "name": "doc_specializaton",
          "type": "string"
        },
        {
          "internalType": "string",
          "name": "Hospital_Name",
          "type": "string"
        },
        {
          "internalType": "uint256",
          "name": "Hospital_id",
          "type": "uint256"
        }
      ],
      "name": "docterRegistration",
      "outputs": [],
      "stateMutability": "nonpayable",
      "type": "function"
    },
    {
      "inputs": [
        {
          "internalType": "address",
          "name": "",
          "type": "address"
        }
      ],
      "name": "doctors",
      "outputs": [
        {
          "internalType": "string",
          "name": "DocName",
          "type": "string"
        },
        {
          "internalType": "address",
          "name": "DocId",
          "type": "address"
        },
        {
          "internalType": "string",
          "name": "Doc_spec",
          "type": "string"
        },
        {
          "internalType": "string",
          "name": "Hos_Name",
          "type": "string"
        },
        {
          "internalType": "uint256",
          "name": "Hos_id",
          "type": "uint256"
        }
      ],
      "stateMutability": "view",
      "type": "function"
    },
    {
      "inputs": [
        {
          "internalType": "address",
          "name": "",
          "type": "address"
        }
      ],
      "name": "patients",
      "outputs": [
        {
          "internalType": "string",
          "name": "PatientName",
          "type": "string"
        },
        {
          "internalType": "address",
          "name": "patientid",
          "type": "address"
        },
        {
          "internalType": "uint256",
          "name": "contact",
          "type": "uint256"
        },
        {
          "internalType": "uint256",
          "name": "age",
          "type": "uint256"
        },
        {
          "internalType": "string",
          "name": "gender",
          "type": "string"
        }
      ],
      "stateMutability": "view",
      "type": "function"
    },
    {
      "inputs": [
        {
          "internalType": "address",
          "name": "",
          "type": "address"
        }
      ],
      "name": "records",
      "outputs": [
        {
          "internalType": "string",
          "name": "PatientName",
          "type": "string"
        },
        {
          "internalType": "address",
          "name": "patientid",
          "type": "address"
        },
        {
          "internalType": "string",
          "name": "emailid",
          "type": "string"
        },
        {
          "internalType": "string",
          "name": "Bloodgrp",
          "type": "string"
        },
        {
          "internalType": "string",
          "name": "DOB",
          "type": "string"
        },
        {
          "internalType": "string",
          "name": "gender",
          "type": "string"
        },
        {
          "internalType": "uint256",
          "name": "age",
          "type": "uint256"
        },
        {
          "internalType": "string",
          "name": "Hos_name",
          "type": "string"
        },
        {
          "internalType": "string",
          "name": "Doc_name",
          "type": "string"
        },
        {
          "internalType": "bool",
          "name": "diabetes",
          "type": "bool"
        }
      ],
      "stateMutability": "view",
      "type": "function"
    },
    {
      "inputs": [],
      "name": "report_count",
      "outputs": [
        {
          "internalType": "uint256",
          "name": "",
          "type": "uint256"
        }
      ],
      "stateMutability": "view",
      "type": "function"
    }
  ],
  "bytecode": "0x6080604052336000806101000a81548173ffffffffffffffffffffffffffffffffffffffff021916908373ffffffffffffffffffffffffffffffffffffffff160217905550600060015534801561005557600080fd5b50612543806100656000396000f3fe6080604052600436106100855760003560e01c80637ab2bd20116100595780637ab2bd2014610158578063867571d914610181578063a7d0fe22146101c1578063a9583c22146101ea578063a9f6cba21461022b57610085565b80626412c41461008a5780630869cfbc146100a657806329aff520146100e7578063469e906714610112575b600080fd5b6100a4600480360381019061009f9190611932565b610254565b005b3480156100b257600080fd5b506100cd60048036038101906100c89190611ad5565b610631565b6040516100de959493929190611b9f565b60405180910390f35b3480156100f357600080fd5b506100fc610797565b6040516101099190611c00565b60405180910390f35b34801561011e57600080fd5b5061013960048036038101906101349190611ad5565b6107a1565b60405161014f9a99989796959493929190611c2a565b60405180910390f35b34801561016457600080fd5b5061017f600480360381019061017a9190611cf7565b610bda565b005b34801561018d57600080fd5b506101a860048036038101906101a39190611ad5565b610d99565b6040516101b89493929190611d9e565b60405180910390f35b3480156101cd57600080fd5b506101e860048036038101906101e39190611df8565b610f81565b005b3480156101f657600080fd5b50610211600480360381019061020c9190611ad5565b611195565b604051610222959493929190611ec7565b60405180910390f35b34801561023757600080fd5b50610252600480360381019061024d9190611f2f565b611383565b005b3373ffffffffffffffffffffffffffffffffffffffff1660008054906101000a900473ffffffffffffffffffffffffffffffffffffffff1673ffffffffffffffffffffffffffffffffffffffff16146102e2576040517f08c379a00000000000000000000000000000000000000000000000000000000081526004016102d990612054565b60405180910390fd5b3373ffffffffffffffffffffffffffffffffffffffff168a73ffffffffffffffffffffffffffffffffffffffff1603610350576040517f08c379a0000000000000000000000000000000000000000000000000000000008152600401610347906120c0565b60405180910390fd5b600760009054906101000a900473ffffffffffffffffffffffffffffffffffffffff1673ffffffffffffffffffffffffffffffffffffffff168a73ffffffffffffffffffffffffffffffffffffffff16036103e0576040517f08c379a00000000000000000000000000000000000000000000000000000000081526004016103d79061212c565b60405180910390fd5b89600660006101000a81548173ffffffffffffffffffffffffffffffffffffffff021916908373ffffffffffffffffffffffffffffffffffffffff1602179055506104296115d9565b8981600001819052508a816020019073ffffffffffffffffffffffffffffffffffffffff16908173ffffffffffffffffffffffffffffffffffffffff1681525050888160400181905250878160600181905250868160800181905250858160a00181905250828160c0018181525050848160e0018190525083816101000181905250818161012001901515908115158152505080600260008d73ffffffffffffffffffffffffffffffffffffffff1673ffffffffffffffffffffffffffffffffffffffff16815260200190815260200160002060008201518160000190816105119190612358565b5060208201518160010160006101000a81548173ffffffffffffffffffffffffffffffffffffffff021916908373ffffffffffffffffffffffffffffffffffffffff160217905550604082015181600201908161056e9190612358565b5060608201518160030190816105849190612358565b50608082015181600401908161059a9190612358565b5060a08201518160050190816105b09190612358565b5060c0820151816006015560e08201518160070190816105d09190612358565b506101008201518160080190816105e79190612358565b506101208201518160090160006101000a81548160ff0219169083151502179055509050506001600081548092919061061f90612459565b91905055505050505050505050505050565b60036020528060005260406000206000915090508060000180546106549061217b565b80601f01602080910402602001604051908101604052809291908181526020018280546106809061217b565b80156106cd5780601f106106a2576101008083540402835291602001916106cd565b820191906000526020600020905b8154815290600101906020018083116106b057829003601f168201915b5050505050908060010160009054906101000a900473ffffffffffffffffffffffffffffffffffffffff16908060020154908060030154908060040180546107149061217b565b80601f01602080910402602001604051908101604052809291908181526020018280546107409061217b565b801561078d5780601f106107625761010080835404028352916020019161078d565b820191906000526020600020905b81548152906001019060200180831161077057829003601f168201915b5050505050905085565b6000600154905090565b60026020528060005260406000206000915090508060000180546107c49061217b565b80601f01602080910402602001604051908101604052809291908181526020018280546107f09061217b565b801561083d5780601f106108125761010080835404028352916020019161083d565b820191906000526020600020905b81548152906001019060200180831161082057829003601f168201915b5050505050908060010160009054906101000a900473ffffffffffffffffffffffffffffffffffffffff16908060020180546108789061217b565b80601f01602080910402602001604051908101604052809291908181526020018280546108a49061217b565b80156108f15780601f106108c6576101008083540402835291602001916108f1565b820191906000526020600020905b8154815290600101906020018083116108d457829003601f168201915b5050505050908060030180546109069061217b565b80601f01602080910402602001604051908101604052809291908181526020018280546109329061217b565b801561097f5780601f106109545761010080835404028352916020019161097f565b820191906000526020600020905b81548152906001019060200180831161096257829003601f168201915b5050505050908060040180546109949061217b565b80601f01602080910402602001604051908101604052809291908181526020018280546109c09061217b565b8015610a0d5780601f106109e257610100808354040283529160200191610a0d565b820191906000526020600020905b8154815290600101906020018083116109f057829003601f168201915b505050505090806005018054610a229061217b565b80601f0160208091040260200160405190810160405280929190818152602001828054610a4e9061217b565b8015610a9b5780601f10610a7057610100808354040283529160200191610a9b565b820191906000526020600020905b815481529060010190602001808311610a7e57829003601f168201915b505050505090806006015490806007018054610ab69061217b565b80601f0160208091040260200160405190810160405280929190818152602001828054610ae29061217b565b8015610b2f5780601f10610b0457610100808354040283529160200191610b2f565b820191906000526020600020905b815481529060010190602001808311610b1257829003601f168201915b505050505090806008018054610b449061217b565b80601f0160208091040260200160405190810160405280929190818152602001828054610b709061217b565b8015610bbd5780601f10610b9257610100808354040283529160200191610bbd565b820191906000526020600020905b815481529060010190602001808311610ba057829003601f168201915b5050505050908060090160009054906101000a900460ff1690508a565b3373ffffffffffffffffffffffffffffffffffffffff1660008054906101000a900473ffffffffffffffffffffffffffffffffffffffff1673ffffffffffffffffffffffffffffffffffffffff1614610c68576040517f08c379a0000000000000000000000000000000000000000000000000000000008152600401610c5f90612054565b60405180910390fd5b610c70611644565b83816000018190525033816020019073ffffffffffffffffffffffffffffffffffffffff16908173ffffffffffffffffffffffffffffffffffffffff16815250508281604001819052508181606001819052508060056000836020015173ffffffffffffffffffffffffffffffffffffffff1673ffffffffffffffffffffffffffffffffffffffff1681526020019081526020016000206000820151816000019081610d1c9190612358565b5060208201518160010160006101000a81548173ffffffffffffffffffffffffffffffffffffffff021916908373ffffffffffffffffffffffffffffffffffffffff1602179055506040820151816002019081610d799190612358565b506060820151816003019081610d8f9190612358565b5090505050505050565b6005602052806000526040600020600091509050806000018054610dbc9061217b565b80601f0160208091040260200160405190810160405280929190818152602001828054610de89061217b565b8015610e355780601f10610e0a57610100808354040283529160200191610e35565b820191906000526020600020905b815481529060010190602001808311610e1857829003601f168201915b5050505050908060010160009054906101000a900473ffffffffffffffffffffffffffffffffffffffff1690806002018054610e709061217b565b80601f0160208091040260200160405190810160405280929190818152602001828054610e9c9061217b565b8015610ee95780601f10610ebe57610100808354040283529160200191610ee9565b820191906000526020600020905b815481529060010190602001808311610ecc57829003601f168201915b505050505090806003018054610efe9061217b565b80601f0160208091040260200160405190810160405280929190818152602001828054610f2a9061217b565b8015610f775780601f10610f4c57610100808354040283529160200191610f77565b820191906000526020600020905b815481529060010190602001808311610f5a57829003601f168201915b5050505050905084565b600660009054906101000a900473ffffffffffffffffffffffffffffffffffffffff1673ffffffffffffffffffffffffffffffffffffffff168473ffffffffffffffffffffffffffffffffffffffff1603611011576040517f08c379a0000000000000000000000000000000000000000000000000000000008152600401611008906124ed565b60405180910390fd5b611019611682565b85816000018190525084816020019073ffffffffffffffffffffffffffffffffffffffff16908173ffffffffffffffffffffffffffffffffffffffff16815250508381604001819052508281606001819052508181608001818152505080600460008773ffffffffffffffffffffffffffffffffffffffff1673ffffffffffffffffffffffffffffffffffffffff16815260200190815260200160002060008201518160000190816110cb9190612358565b5060208201518160010160006101000a81548173ffffffffffffffffffffffffffffffffffffffff021916908373ffffffffffffffffffffffffffffffffffffffff16021790555060408201518160020190816111289190612358565b50606082015181600301908161113e9190612358565b506080820151816004015590505084600760006101000a81548173ffffffffffffffffffffffffffffffffffffffff021916908373ffffffffffffffffffffffffffffffffffffffff160217905550505050505050565b60046020528060005260406000206000915090508060000180546111b89061217b565b80601f01602080910402602001604051908101604052809291908181526020018280546111e49061217b565b80156112315780601f1061120657610100808354040283529160200191611231565b820191906000526020600020905b81548152906001019060200180831161121457829003601f168201915b5050505050908060010160009054906101000a900473ffffffffffffffffffffffffffffffffffffffff169080600201805461126c9061217b565b80601f01602080910402602001604051908101604052809291908181526020018280546112989061217b565b80156112e55780601f106112ba576101008083540402835291602001916112e5565b820191906000526020600020905b8154815290600101906020018083116112c857829003601f168201915b5050505050908060030180546112fa9061217b565b80601f01602080910402602001604051908101604052809291908181526020018280546113269061217b565b80156113735780601f1061134857610100808354040283529160200191611373565b820191906000526020600020905b81548152906001019060200180831161135657829003601f168201915b5050505050908060040154905085565b60008054906101000a900473ffffffffffffffffffffffffffffffffffffffff1673ffffffffffffffffffffffffffffffffffffffff168473ffffffffffffffffffffffffffffffffffffffff1603611411576040517f08c379a0000000000000000000000000000000000000000000000000000000008152600401611408906120c0565b60405180910390fd5b600760009054906101000a900473ffffffffffffffffffffffffffffffffffffffff1673ffffffffffffffffffffffffffffffffffffffff168473ffffffffffffffffffffffffffffffffffffffff16036114a1576040517f08c379a00000000000000000000000000000000000000000000000000000000081526004016114989061212c565b60405180910390fd5b6114a96116c7565b85816000018190525084816020019073ffffffffffffffffffffffffffffffffffffffff16908173ffffffffffffffffffffffffffffffffffffffff1681525050838160600181815250508281608001819052508181604001818152505080600360008773ffffffffffffffffffffffffffffffffffffffff1673ffffffffffffffffffffffffffffffffffffffff168152602001908152602001600020600082015181600001908161155c9190612358565b5060208201518160010160006101000a81548173ffffffffffffffffffffffffffffffffffffffff021916908373ffffffffffffffffffffffffffffffffffffffff160217905550604082015181600201556060820151816003015560808201518160040190816115cd9190612358565b50905050505050505050565b60405180610140016040528060608152602001600073ffffffffffffffffffffffffffffffffffffffff168152602001606081526020016060815260200160608152602001606081526020016000815260200160608152602001606081526020016000151581525090565b604051806080016040528060608152602001600073ffffffffffffffffffffffffffffffffffffffff16815260200160608152602001606081525090565b6040518060a0016040528060608152602001600073ffffffffffffffffffffffffffffffffffffffff1681526020016060815260200160608152602001600081525090565b6040518060a0016040528060608152602001600073ffffffffffffffffffffffffffffffffffffffff1681526020016000815260200160008152602001606081525090565b6000604051905090565b600080fd5b600080fd5b600073ffffffffffffffffffffffffffffffffffffffff82169050919050565b600061174b82611720565b9050919050565b61175b81611740565b811461176657600080fd5b50565b60008135905061177881611752565b92915050565b600080fd5b600080fd5b6000601f19601f8301169050919050565b7f4e487b7100000000000000000000000000000000000000000000000000000000600052604160045260246000fd5b6117d182611788565b810181811067ffffffffffffffff821117156117f0576117ef611799565b5b80604052505050565b600061180361170c565b905061180f82826117c8565b919050565b600067ffffffffffffffff82111561182f5761182e611799565b5b61183882611788565b9050602081019050919050565b82818337600083830152505050565b600061186761186284611814565b6117f9565b90508281526020810184848401111561188357611882611783565b5b61188e848285611845565b509392505050565b600082601f8301126118ab576118aa61177e565b5b81356118bb848260208601611854565b91505092915050565b6000819050919050565b6118d7816118c4565b81146118e257600080fd5b50565b6000813590506118f4816118ce565b92915050565b60008115159050919050565b61190f816118fa565b811461191a57600080fd5b50565b60008135905061192c81611906565b92915050565b6000806000806000806000806000806101408b8d03121561195657611955611716565b5b60006119648d828e01611769565b9a505060208b013567ffffffffffffffff8111156119855761198461171b565b5b6119918d828e01611896565b99505060408b013567ffffffffffffffff8111156119b2576119b161171b565b5b6119be8d828e01611896565b98505060608b013567ffffffffffffffff8111156119df576119de61171b565b5b6119eb8d828e01611896565b97505060808b013567ffffffffffffffff811115611a0c57611a0b61171b565b5b611a188d828e01611896565b96505060a08b013567ffffffffffffffff811115611a3957611a3861171b565b5b611a458d828e01611896565b95505060c08b013567ffffffffffffffff811115611a6657611a6561171b565b5b611a728d828e01611896565b94505060e08b013567ffffffffffffffff811115611a9357611a9261171b565b5b611a9f8d828e01611896565b935050610100611ab18d828e016118e5565b925050610120611ac38d828e0161191d565b9150509295989b9194979a5092959850565b600060208284031215611aeb57611aea611716565b5b6000611af984828501611769565b91505092915050565b600081519050919050565b600082825260208201905092915050565b60005b83811015611b3c578082015181840152602081019050611b21565b60008484015250505050565b6000611b5382611b02565b611b5d8185611b0d565b9350611b6d818560208601611b1e565b611b7681611788565b840191505092915050565b611b8a81611740565b82525050565b611b99816118c4565b82525050565b600060a0820190508181036000830152611bb98188611b48565b9050611bc86020830187611b81565b611bd56040830186611b90565b611be26060830185611b90565b8181036080830152611bf48184611b48565b90509695505050505050565b6000602082019050611c156000830184611b90565b92915050565b611c24816118fa565b82525050565b6000610140820190508181036000830152611c45818d611b48565b9050611c54602083018c611b81565b8181036040830152611c66818b611b48565b90508181036060830152611c7a818a611b48565b90508181036080830152611c8e8189611b48565b905081810360a0830152611ca28188611b48565b9050611cb160c0830187611b90565b81810360e0830152611cc38186611b48565b9050818103610100830152611cd88185611b48565b9050611ce8610120830184611c1b565b9b9a5050505050505050505050565b600080600060608486031215611d1057611d0f611716565b5b600084013567ffffffffffffffff811115611d2e57611d2d61171b565b5b611d3a86828701611896565b935050602084013567ffffffffffffffff811115611d5b57611d5a61171b565b5b611d6786828701611896565b925050604084013567ffffffffffffffff811115611d8857611d8761171b565b5b611d9486828701611896565b9150509250925092565b60006080820190508181036000830152611db88187611b48565b9050611dc76020830186611b81565b8181036040830152611dd98185611b48565b90508181036060830152611ded8184611b48565b905095945050505050565b600080600080600060a08688031215611e1457611e13611716565b5b600086013567ffffffffffffffff811115611e3257611e3161171b565b5b611e3e88828901611896565b9550506020611e4f88828901611769565b945050604086013567ffffffffffffffff811115611e7057611e6f61171b565b5b611e7c88828901611896565b935050606086013567ffffffffffffffff811115611e9d57611e9c61171b565b5b611ea988828901611896565b9250506080611eba888289016118e5565b9150509295509295909350565b600060a0820190508181036000830152611ee18188611b48565b9050611ef06020830187611b81565b8181036040830152611f028186611b48565b90508181036060830152611f168185611b48565b9050611f256080830184611b90565b9695505050505050565b600080600080600060a08688031215611f4b57611f4a611716565b5b600086013567ffffffffffffffff811115611f6957611f6861171b565b5b611f7588828901611896565b9550506020611f8688828901611769565b9450506040611f97888289016118e5565b935050606086013567ffffffffffffffff811115611fb857611fb761171b565b5b611fc488828901611896565b9250506080611fd5888289016118e5565b9150509295509295909350565b7f4f6e6c7920446961676e6f737469632043656e746572732063616e2063616c6c60008201527f20746869732066756e6374696f6e000000000000000000000000000000000000602082015250565b600061203e602e83611b0d565b915061204982611fe2565b604082019050919050565b6000602082019050818103600083015261206d81612031565b9050919050565b7f50617469656e742063616e6e6f7420626520746865204c616277616c61000000600082015250565b60006120aa601d83611b0d565b91506120b582612074565b602082019050919050565b600060208201905081810360008301526120d98161209d565b9050919050565b7f446f63746f722063616e6e6f74206265207468652070617469656e7400000000600082015250565b6000612116601c83611b0d565b9150612121826120e0565b602082019050919050565b6000602082019050818103600083015261214581612109565b9050919050565b7f4e487b7100000000000000000000000000000000000000000000000000000000600052602260045260246000fd5b6000600282049050600182168061219357607f821691505b6020821081036121a6576121a561214c565b5b50919050565b60008190508160005260206000209050919050565b60006020601f8301049050919050565b600082821b905092915050565b60006008830261220e7fffffffffffffffffffffffffffffffffffffffffffffffffffffffffffffffff826121d1565b61221886836121d1565b95508019841693508086168417925050509392505050565b6000819050919050565b600061225561225061224b846118c4565b612230565b6118c4565b9050919050565b6000819050919050565b61226f8361223a565b61228361227b8261225c565b8484546121de565b825550505050565b600090565b61229861228b565b6122a3818484612266565b505050565b5b818110156122c7576122bc600082612290565b6001810190506122a9565b5050565b601f82111561230c576122dd816121ac565b6122e6846121c1565b810160208510156122f5578190505b612309612301856121c1565b8301826122a8565b50505b505050565b600082821c905092915050565b600061232f60001984600802612311565b1980831691505092915050565b6000612348838361231e565b9150826002028217905092915050565b61236182611b02565b67ffffffffffffffff81111561237a57612379611799565b5b612384825461217b565b61238f8282856122cb565b600060209050601f8311600181146123c257600084156123b0578287015190505b6123ba858261233c565b865550612422565b601f1984166123d0866121ac565b60005b828110156123f8578489015182556001820191506020850194506020810190506123d3565b868310156124155784890151612411601f89168261231e565b8355505b6001600288020188555050505b505050505050565b7f4e487b7100000000000000000000000000000000000000000000000000000000600052601160045260246000fd5b6000612464826118c4565b91507fffffffffffffffffffffffffffffffffffffffffffffffffffffffffffffffff82036124965761249561242a565b5b600182019050919050565b7f446f63746f722063616e6e6f742062652070617469656e740000000000000000600082015250565b60006124d7601883611b0d565b91506124e2826124a1565b602082019050919050565b60006020820190508181036000830152612506816124ca565b905091905056fea26469706673582212205e686b5bac706b67be89dd12f3f13a1f2e7b6fde65cf79cf43bbf12c9a5d287064736f6c63430008110033",
  "linkReferences": {},
  "deployedLinkReferences": {}
}